:020000040800F2
:1000000030040020A9010008AD010008AF0100087C
:10001000B1010008B3010008B501000800000000AC
:10002000000000000000000000000000B701000810
:10003000B901000800000000BB010008BD01000874
:10004000BF010008BF010008BF010008BF01000890
:10005000BF010008BF010008BF010008BF01000880
:10006000BF010008BF010008BF010008BF01000870
:10007000BF010008BF010008BF010008BF01000860
:10008000BF010008BF010008BF0100080000000018
:10009000000000000000000000000000BF01000898
:1000A000BF010008BF010008BF010008BF01000830
:1000B000A10B0008F10B0008490C0008BF01000863
:1000C000BF010008BF010008BF010008BF01000810
:1000D000BF010008BF010008F90C00080000000083
:1000E000BF010008BF010008BF01000800000000B8
:1000F000000000000000000000000000BF01000838
:1001000000000000BF010008A10C0008BF010008AA
:1001100000000000000000000000000000000000DF
:10012000BF010008BF010008BF010008BF010008AF
:10013000BF010008000000000000000000000000F7
:10014000000000000000000000000000BF010008E7
:10015000BF010008BF010008BF010008BF0100087F
:10016000BF010008BF0100080000000000000000FF
:10017000000000000000000000000000000000007F
:1001800000000000BF0100080000000000000000A7
:10019000BF010008DFF80CD000F014FA0048004757
:1001A000250D00083004002005480047FEE7FEE763
:1001B000FEE7FEE7FEE7FEE7FEE7FEE7FEE7FEE717
:1001C0009501000830B50B4601460020202201248D
:1001D00009E021FA02F59D4205D303FA02F5491B15
:1001E00004FA02F52844151EA2F10102F1DC30BD2B
:1001F0002DE9F05F0546002092469B46884606465C
:10020000814640241BE0284641464746224600F0EE
:10021000FAF953465A46C01A914110D3114618466E
:10022000224600F0E1F92D1A67EB01084F462246FD
:100230000120002100F0D8F917EB00094E41201EE3
:10024000A4F10104DFDC484631462A464346BDE8B6
:10025000F09F2DE9FE4F804681EA0300C00F0C4657
:10026000009021F0004123F00045B8EB0200A941C5
:1002700005D24046214690461C460B46024623F0D6
:100280000040104347D0270DC7F30A00C3F30A51BB
:100290000290401A019040286BDAC3F3130040F437
:1002A000801B0098924620B10023D2EB030A63EB37
:1002B0000B0B01985946C0F14002504600F094F9EA
:1002C00006460D4650465946019A00F0ACF910EB2F
:1002D00008006141002487EA115284EAE7731A4357
:1002E00040D0009A62B3019A012A4FEA075215DC06
:1002F000001B61EB02014FF0004202EA0752CDE918
:100300000042001C41F5801132462B4600F0ACF94A
:1003100003B0BDE8F08F40462146F9E7001B61EBD2
:100320000201001C41F5801300185B412018A2F562
:10033000001747EB030140EAD570B6196D4111E093
:100340006D084FEA360645EAC0754FEA0752001BB2
:1003500061EB0201001C41F5801149084FEA3000B1
:100360000019514132462B4603B0BDE8F04F00F072
:100370006CB90098012240000023D0EB020263EB2D
:10038000E073009821464FEAE074B8EB000061EB9F
:100390000401E9E783F000435BE781F0004158E79F
:1003A0002DE9FE4F81EA030404F0004421F00041EE
:1003B00000944FF0000B23F0004350EA01045ED09C
:1003C00052EA03045BD0C3F30A54C1F30A552C4428
:1003D000A4F2F3340194A0FB0254C1F3130141F4DD
:1003E0008011C3F3130343F4801301FB024400FBA9
:1003F000034E840A970A44EA815447EA8357A4FBD0
:10040000076802958D0A05FB07854FEA932C04FBCC
:100410000C542705029D4FEA065847EA1637B5EBFC
:1004200008056EEB070C870E920E47EA811742EA29
:100430008312A7FB0201B6EB0B0164EB00042B0D4A
:1004400043EA0C335E1844EB1C50DA465146E7FB96
:100450000201C5F313044FEA0B3343EA14534FEA86
:100460000432019C43EA0603A4F10C040294009CAC
:10047000CDE900B400F0F8F803B0BDE8F08F00203B
:100480000146F9E72DE9F04D81EA030404F0004B41
:1004900021F0004514464FF0000A23F0004150EAD5
:1004A000050220D054EA01021DD0C5F30A570246C6
:1004B000C5F31303C1F31300C1F30A5640F48015CA
:1004C00043F48013A7EB0608101BD64608F2FD384C
:1004D00073EB050002D308F1010801E092185B41BB
:1004E000B8F1000F03DA00200146BDE8F08D0020CE
:1004F0004FF48011064684460EE0171B73EB050788
:1005000005D3121B63EB050306434CEA010C4908B3
:100510004FEA300092185B4150EA0107EDD152EAF0
:10052000030012D082EA040083EA0501084305D0E3
:10053000101BAB4106D20122002306E000224FF03F
:10054000004302E06FF0010253101AEB06004CEB7F
:10055000085110EB0A0041EB0B01BDE8F04D00F033
:1005600074B8C1F30A52C1F3130140F2FF3341F4EE
:1005700080119A4202DA00200146704740F233436C
:100580009A42A2F2334202DC524200F03CB800F040
:100590002BB8000030B5041E71F1000404DB4FF0ED
:1005A0000044404264EB0101141E73F1000405DBBA
:1005B0001C464FF00043524263EB0403994208BFCC
:1005C000904230BD064C074D06E0E06840F0010364
:1005D00094E8070098471034AC42F6D3FFF7DEFDED
:1005E0001C2700083C270008202A04DB203A00FAD8
:1005F00002F1002070479140C2F1200320FA03F37A
:10060000194390407047202A04DB203A21FA02F077
:100610000021704721FA02F3D040C2F1200291403C
:10062000084319467047202A06DBCB17203A41FAC7
:1006300002F043EAE07306E041FA02F3D040C2F16F
:100640002002914008431946704710B5141E73F1FB
:10065000000408DA401C41F1000192185B411A4382
:1006600001D120F0010010BD2DE9F04D92469B46CE
:1006700011B1B1FA81F202E0B0FA80F22032904674
:10068000FFF7B2FF04460F4640EA0A0041EA0B01B9
:1006900053465A46084313D0114653EA010019D075
:1006A000C8F140025046FFF7AEFF05460E465046E1
:1006B00059464246FFF798FF084305D0012004E061
:1006C00020463946BDE8F08D0020054346EAE07635
:1006D0002C4337430A986305E40AA0EB0800002284
:1006E000FD0A44EA47540A3002D500200146E9E7F2
:1006F000010510196941DDE9084500196941BDE8A6
:10070000F04DA2E780B5B6B003A8029042F2D43013
:10071000C0F6000000F068FF1F203590FFE7359815
:10072000002838D4FFE747F61820C1F6FF700068AC
:100730003599C840C007002808D0FFE7029842F268
:100740001871C0F6000100F07BFF07E0029842F24A
:100750001671C0F6000100F073FFFFE70298013048
:1007600002903598C11700EB917121F00301401AF6
:1007700000280BD1FFE7029842F21471C0F6000185
:1007800000F05EFF029901310291FFE7FFE7359823
:1007900001383590C3E71F203590FFE735980028D2
:1007A00038D4FFE747F61420C1F6FF70006835998A
:1007B000C840C007002808D0FFE7029842F218712D
:1007C000C0F6000100F03CFF07E0029842F216710B
:1007D000C0F6000100F034FFFFE7029801300290FC
:1007E0003598C11700EB917121F00301401A0028E0
:1007F0000BD1FFE7029842F21471C0F6000100F03D
:100800001FFF029901310291FFE7FFE73598013898
:100810003590C3E71F203590FFE7359800283CD47A
:10082000FFE747F61020C1F6FF7000683599C84011
:10083000C007002808D0FFE7029842F21871C0F6FE
:10084000000100F0FDFE07E0029842F21671C0F6CA
:10085000000100F0F5FEFFE70298013002903598A4
:10086000C11700EB917121F00301401A00280FD14C
:10087000FFE7359800280BD0FFE7029842F2147189
:10088000C0F6000100F0DCFE029901310291FFE7A1
:10089000FFE7359801383590BFE7029841F644717B
:1008A000C0F6000100F0CCFE03A90190084600F05C
:1008B0009BFE00F08BFE36B080BD000080B540F29C
:1008C0002800C2F200000321016042F2DB10C0F6F2
:1008D000000000F089FE42F2B820C0F6000000F0EF
:1008E00083FE42F21030C0F6000000F07DFE42F2BE
:1008F000F320C0F6000000F077FE42F2D520C0F6EB
:10090000000000F071FE41F67D70C0F6000000F0BE
:100910006BFE80BD80B584B0039040F22400C2F22B
:1009200000000068013801460328019100F285802B
:100930000199DFE801F00222426240F20400C2F2B3
:10094000000001680291016840F20002C2F2000258
:1009500013681944039B594348F21F53C5F2EB1324
:1009600051FB03F14B1103EBD17101601168029B44
:1009700019440068081A10605FE040F20C00C2F2EF
:10098000000001680291016840F20802C2F2000210
:1009900013681944039B594348F21F53C5F2EB13E4
:1009A00051FB03F14B1103EBD17101601168029B04
:1009B00019440068081A10603FE040F21400C2F2C7
:1009C000000001680291016840F21002C2F20002C8
:1009D00013681944039B594348F21F53C5F2EB13A4
:1009E00051FB03F14B1103EBD17101601168029BC4
:1009F00019440068081A10601FE040F21C00C2F29F
:100A0000000001680291016840F21802C2F200027F
:100A100013681944039B594348F21F53C5F2EB1363
:100A200051FB03F14B1103EBD17101601168029B83
:100A300019440068081A1060FFE740F22400C2F26F
:100A400000000021016000F0C1FD04B080BD000085
:100A500083B002900020019040F22400C2F2000016
:100A60000068013801460328009100F29180009946
:100A7000DFE801F00225486B40F20400C2F20000FA
:100A8000016864224A4340F20003C2F20003D3F833
:100A900000C0614492FBF1F10191019942F21072A0
:100AA0005143DDF808C091FBFCF101600198C0F1F1
:100AB00064005043029990FBF1F0186068E040F246
:100AC0000C00C2F20000016864224A4340F20803AD
:100AD000C2F20003D3F800C0614492FBF1F101912E
:100AE000019942F210725143DDF808C091FBFCF10C
:100AF00001600198C0F164005043029990FBF1F04D
:100B0000186045E040F21400C2F20000016864225F
:100B10004A4340F21003C2F20003D3F800C061441C
:100B200092FBF1F10191019942F210725143DDF80B
:100B300008C091FBFCF101600198C0F164005043D2
:100B4000029990FBF1F0186022E040F21C00C2F222
:100B50000000016864224A4340F21803C2F2000315
:100B6000D3F800C0614492FBF1F10191019942F286
:100B700010725143DDF808C091FBFCF1016001984F
:100B8000C0F164005043029990FBF1F01860FFE758
:100B900040F22400C2F200000021016003B070475F
:100BA0001020C4F20000016821F00101016014204E
:100BB000C4F20200016881F0010101600078C00701
:100BC00000280AD0FFE740F20400C2F200000068EB
:100BD0002C21C4F20001086009E040F20000C2F2DA
:100BE000000000682C21C4F200010860FFE7704794
:100BF00040F21040C4F20000016821F001010160E0
:100C00001420C4F20200016881F002010160007842
:100C1000800700280BD5FFE740F20C00C2F200006D
:100C2000006840F22C41C4F2000108600AE040F282
:100C30000800C2F20000006840F22C41C4F200013A
:100C40000860FFE77047000040F61000C4F20000A3
:100C5000016821F0010101601420C4F20200016862
:100C600081F0100101600078C00600280BD5FFE775
:100C700040F21400C2F20000006840F62C01C4F2F9
:100C8000000108600AE040F21000C2F200000068B3
:100C900040F62C01C4F200010860FFE77047000035
:100CA00040F61040C4F20000016821F0010101602B
:100CB0001420C4F20200016881F020010160007874
:100CC000800600280BD5FFE740F21C00C2F20000AE
:100CD000006840F62C41C4F2000108600AE040F2CE
:100CE0001800C2F20000006840F62C41C4F2000176
:100CF0000860FFE77047000044F20440C4F20000BF
:100D0000006840F22001C2F2000108607047000054
:100D100080B542F2BE10C0F6000000F065FC00F0A5
:100D200055FC80BD80B58AB00020099043F6400193
:100D3000C4F202010A680F23C0F202031A430A60D8
:100D400043F63001C4F202010A6842F001020A606F
:100D50000021C4F202010A6840F2A5531A430A6056
:100D60002021C4F202014FF4EE420A6044F20C4129
:100D7000C4F200010A6842F22C031A430A6044F2EA
:100D80000841C4F2000140F283620A600C21C4F2FF
:100D900000010A6842F001020A6040F20C41C4F20C
:100DA00000010A6842F001020A6040F60C01C4F238
:100DB00000010A6842F001020A6040F60C41C4F2E8
:100DC00000010A6842F001020A602821C4F2000111
:100DD0000F220A6040F22841C4F200010A6040F686
:100DE0002801C4F200010A6040F62841C4F2000163
:100DF0000A602C21C4F20001086040F22C41C4F2C8
:100E00000001086040F62C01C4F20001086040F6C1
:100E10002C41C4F2000108604FF08040016841F0AD
:100E20000501016040F20040C4F20000016841F099
:100E30000501016040F60000C4F20000016841F0C5
:100E40000501016040F60040C4F20000016841F075
:100E5000050101604EF20410CEF20000016840224C
:100E6000C0F20402114301604EF20010CEF2000005
:100E7000016841F0E041016042F2F330C0F6000049
:100E800000F0B2FB00F0A2FBFFE740F22000C2F24C
:100E900000000068002800F09683FFE742F2D810B7
:100EA000C0F6000000F0A0FB40F22800C2F20000F3
:100EB00000680628089000F27F830899DFE811F0A7
:100EC00007003A001A02BE02FC0227034F0340F259
:100ED0002000C2F200000068313801460328079163
:100EE00024D80799DFE801F0020F1C1F42F24C40A2
:100EF000C0F6000000F078FB40F22800C2F20000CB
:100F00000121016015E042F22D30C0F6000000F032
:100F10006BFB40F22800C2F200000221016008E0F1
:100F2000FFF7CCFC05E0FFF7EDFB02E0FFF7F0FE7A
:100F3000FFE741E340F22000C2F2000000683038D1
:100F400001460428069100F2D1810699DFE811F0EC
:100F500005005100A7000401690140F20400C2F23B
:100F600000000021016040F20000C2F200000160B8
:100F70002C20C4F20000016040F20C00C2F200001C
:100F8000016040F20800C2F20000016040F22C4013
:100F9000C4F20000016040F21400C2F200000160DF
:100FA00040F21000C2F20000016040F62C00C4F2D2
:100FB0000000016040F21C00C2F20000016040F23B
:100FC0001800C2F20000016040F62C40C4F200009C
:100FD00001601420C4F20200016821F033010160B5
:100FE00042F2A710C0F6000000F0FEFA00F0EEFAA0
:100FF0007FE140F20400C2F2000042F21071016091
:1010000040F20002C2F20002116000682C21C4F21A
:10101000000108601420C4F20000016841F00101E1
:10102000016040F20C00C2F200000021016040F2B9
:101030000800C2F20000016040F22C40C4F200003F
:10104000016040F21400C2F20000016040F21000A2
:10105000C2F20000016040F62C00C4F20000016002
:1010600040F21C00C2F20000016040F21800C2F21F
:101070000000016040F62C40C4F200000160142022
:10108000C4F20200016821F03201016041F69C7057
:10109000C0F6000000F0A8FA00F098FA29E140F24A
:1010A0000400C2F2000042F21071016040F2000040
:1010B000C2F2000001602C20C4F200000160142084
:1010C000C4F20000026842F00102026040F20C002B
:1010D000C2F20000016040F20800C2F200000160AC
:1010E00040F22C40C4F20000016040F21440C4F20F
:1010F0000000016841F00101016040F21400C2F2F9
:1011000000000021016040F21000C2F20000016006
:1011100040F62C00C4F20000016040F21C00C2F254
:101120000000016040F21800C2F20000016040F6C9
:101130002C40C4F2000001601420C4F202000168D7
:1011400021F03001016041F6C770C0F6000000F0E8
:101150004BFA00F03BFACCE040F20400C2F200008F
:1011600042F21071016040F20000C2F20000016022
:101170002C20C4F2000001601420C4F200000268B8
:1011800042F00102026040F20C00C2F20000016075
:1011900040F20800C2F20000016040F22C40C4F2AC
:1011A0000000016040F21440C4F20000026842F006
:1011B0000102026040F21400C2F20000016040F23D
:1011C0001000C2F20000016040F62C00C4F20000E2
:1011D000016040F61400C4F20000016841F0010112
:1011E000016040F21C00C2F200000021016040F2E8
:1011F0001800C2F20000016040F62C40C4F200006A
:1012000001601420C4F20200016821F02001016095
:1012100041F6F870C0F6000000F0E6F900F0D6F9EB
:1012200067E040F20400C2F2000042F21071016077
:1012300040F20000C2F2000001602C20C4F2000065
:1012400001601420C4F20000026842F00102026052
:1012500040F20C00C2F20000016040F20800C2F24D
:101260000000016040F22C40C4F20000016040F236
:101270001440C4F20000026842F00102026040F231
:101280001400C2F20000016040F21000C2F200003F
:10129000016040F62C00C4F20000016040F614002A
:1012A000C4F20000026842F00102026040F21C0039
:1012B000C2F20000016040F21800C2F200000160BA
:1012C00040F62C40C4F20000016040F61440C4F225
:1012D0000000016841F00101016042F22E00C0F6F9
:1012E000000000F081F900F071F902E0FFF710FD55
:1012F000FFE761E140F22000C2F2000000683138EF
:1013000001460328059100F280800599DFE801F08D
:1013100002203F5E2C20C4F200000068002807D0A5
:10132000FFE740F22400C2F200000121016008E062
:1013300041F64A70C0F6000000F056F900F046F998
:10134000FFE740F22000C2F20000002101605FE0F0
:1013500040F22C40C4F200000068002807D0FFE7EC
:1013600040F22400C2F200000221016008E041F6D0
:101370004A70C0F6000000F037F900F027F9FFE7E7
:1013800040F22000C2F200000021016040E040F67F
:101390002C00C4F200000068002807D0FFE740F2EC
:1013A0002400C2F200000321016008E041F64A7007
:1013B000C0F6000000F018F900F008F9FFE740F26D
:1013C0002000C2F200000021016021E040F62C4024
:1013D000C4F200000068002807D0FFE740F22400B4
:1013E000C2F200000421016008E041F64A70C0F634
:1013F000000000F0F9F800F0E9F8FFE740F2200003
:10140000C2F200000021016002E0FFF781FCFFE76B
:1014100040F22400C2F20000006800280DD0FFE76F
:1014200042F2AA50C0F6000000F0DEF840F22800B8
:10143000C2F2000004210160FFE7BDE040F220009D
:10144000C2F20000006831380146042804912DD80A
:101450000499DFE801F0030B131B230044F208405A
:10146000C4F2000041F60B21016022E044F2084082
:10147000C4F2000040F6055101601AE044F2084051
:10148000C4F2000040F28361016012E044F20840BF
:10149000C4F2000040F2574101600AE044F2084003
:1014A000C4F2000040F24131016002E0FFF730FC7D
:1014B000FFE700F08BF87FE040F22000C2F200006E
:1014C00000683128039004D0FFE7039832280DD03C
:1014D00019E042F21D20C0F6000000F085F840F24D
:1014E0002800C2F20000052101600FE042F25560C1
:1014F000C0F6000000F078F840F22800C2F20000C8
:101500000621016002E0FFF703FCFFE754E040F230
:101510002000C2F200000068313801460428029120
:1015200019D80299DFE801F003070B0F13000A2016
:10153000FFF7F0F912E01E20FFF7ECF90EE0322081
:10154000FFF7E8F90AE04620FFF7E4F906E05A2041
:10155000FFF7E0F902E0FFF7DBFBFFE72CE040F2EA
:101560002000C2F2000000683138014605280191D0
:101570001FD80199DFE801F003070B0F13180120B2
:10158000FFF766FA15E00A20FFF762FA11E014206F
:10159000FFF75EFA0DE06420FFF75AFA09E04FF416
:1015A0007A70FFF755FA04E042F21070FFF750FA34
:1015B000FFE700F00BF8FFE740F22000C2F2000066
:1015C00000210160FFE7FFF760BC000080B542F238
:1015D0006900C0F6000000F007F840F22800C2F2EF
:1015E00000000021016080BD81B00090FFE70098FD
:1015F0000078002821D0FFE744F20040C4F2000048
:10160000016821F0400101600098007844F2044133
:10161000C4F200010860FFE744F20040C4F2000099
:10162000006800F040000021B1EB901F01D1FFE7FE
:10163000F2E7009801300090D9E701B07047000050
:101640000FB4084B10B504A902AA039800F0DEF805
:10165000044602A9002000F070FC204610BC5DF892
:1016600014FB00003B1F000802E008C8121F08C15D
:10167000002AFAD170477047002001E001C1121F13
:10168000002AFBD1704700002DE9FF5F82B00021E6
:10169000DDE90430020DDDF840B0034318D044F614
:1016A0001050A2F2FF3242431514119801281FD0A6
:1016B000A5EB0B00401C5FEA000A4FF000064E4FFE
:1016C000DFF83891B046504615D5CAF1000413E052
:1016D000119801244AA3012801D16FEA0B01029855
:1016E000119AC0E90031C0E9024206B0BDE8F09F9E
:1016F000CBF10000DFE704460021404A491842EBE5
:101700000450CDE9001012E0E00707D032463B4616
:1017100040464946FEF744FE8046894632463B46EF
:1017200010461946FEF73CFE06460F466410002C94
:10173000EAD1DDE90401DDE90023BAF1000F06DAA0
:10174000FEF72EFE42464B46FEF72AFE05E0FEF768
:1017500099FE42464B46FEF795FE04460E46002291
:10176000284BFEF717FF03D84FF0FF30014607E084
:101770000022254B20463146FEF76BFDFEF7F1FEB9
:10178000102409E0002C0ADB0A220023FEF730FDBA
:10179000039B30321A55641E50EA0102F2D1641CD8
:1017A000039AC4F111031444119A012A03D00122AF
:1017B00008430DD10AE0084304D000204FF0110B7C
:1017C000119072E7A3EB0B056D1E0DE05B4504DD88
:1017D0004FF0000205F1010504E003DA4FF00002CA
:1017E000A5F10105002AECD002981199C0E9023157
:1017F000C0E9004579E70000000014400000F03F18
:10180000300000000000F0430000E03F2DE9FF4FF2
:1018100095B09B468946064600250FE2252877D1DC
:1018200000242746F84A0121059400E0044316F8F5
:10183000013F203B01FA03F01042F7D130782A280B
:1018400011D06FF02F033078A0F13002092A16D89A
:10185000059A44F0020402EB820203EB42021044B8
:10186000761C0590EFE759F8042B0592002A03DA5D
:10187000504244F40054059044F00204761C307841
:101880002E2816D116F8010F44F004042A280DD092
:101890006FF02F023078A0F13003092B09D807EB45
:1018A000870302EB4303C718761CF3E759F8047B60
:1018B000761C30786C280FD006DC4C2817D06828AE
:1018C0000DD06A2814D104E0742810D07A280FD1E2
:1018D0000DE044F400140AE044F4801401E044F400
:1018E00040147278824202D104F58014761C761C72
:1018F000307866280BD013DC582877D009DC002814
:1019000075D04528F6D04628F4D047281AD19DE155
:1019100018E0632835D0642879D0652812D195E184
:10192000702873D008DC6728F1D069286FD06E2842
:101930000DD06F2806D1B5E073282CD0752875D04E
:10194000782874D05A46179990476D1C75E1C4F3F6
:101950000250022809D003280DD0D9F8001004281D
:101960000DD00D6009F1040967E1D9F80010EA17FC
:10197000C1E90052F6E7D9F800100D80F2E70D70CA
:10198000F0E719F8041B8DF8001000208DF8010015
:10199000EA46012003E059F804AB4FF0FF3061073D
:1019A0004FF0000102D40DE008F101018846B94270
:1019B0000FDA8045F8DB1AF808100029F4D108E0A6
:1019C00008F1010188468142FADB1AF80810002963
:1019D000F6D105985B46A0EB080721463846179AD2
:1019E00000F094FA284400EB080507E04DE029E1F7
:1019F0000DE01AF8010B5A4617999047B8F1010803
:101A0000F7D25B4621463846179A13E142E00A2294
:101A10000092C4F302524FF0000A022A08D059F88B
:101A200004CB032A4FEAEC710AD00DE029E02AE04A
:101A300009F1070121F00702F2E802C1914609E02D
:101A40000FFA8CFC4FEAEC71042A03D14FFA8CFC9C
:101A50004FEAEC71002907DA0A460021DCF1000C9C
:101A600061EB02012D2202E0220504D52B228DF824
:101A70000420012203E0E20701D02022F7E790468C
:101A800059E00A2102E010220DE010214FF0000A77
:101A900000910BE010224FF0000A44F004040827E4
:101AA000009203E008224FF0000A0092C4F30252B1
:101AB000022A05D059F804CB0021032A08D009E0F6
:101AC00009F1070121F00702F2E802C1914605E0A1
:101AD0001FFA8CFC042A01D10CF0FF0C4FF0000817
:101AE000220728D5702806D0009B83F0100353EA04
:101AF0000A0305D00EE040228DF80420012208E000
:101B00005CEA010206D030228DF804208DF8050031
:101B100002229046009B83F0080353EA0A030AD18D
:101B20005CEA010201D1620705D530228DF804205C
:101B30004FF001087F1E582804D034A003900EA84F
:101B400002900DE036A0F9E753466046009AFEF792
:101B50004FFB84460398825C0298401E02900270FC
:101B60005CEA0100F0D1029806A9081A00F1200AE7
:101B7000600702D524F4803400E00127574502DDD8
:101B8000A7EB0A0000E0002000EB0A010090059896
:101B90004144401A0590E00306D45B462146179A5B
:101BA000059800F0B3F90544002706E001A85A465D
:101BB000C05D179990476D1C7F1C4745F6DBE0031D
:101BC0000CD55B462146179A059800F09FF905440D
:101BD00004E030205A46179990476D1C0099481E22
:101BE00000900029F5DC08E0029802995A46007836
:101BF000491C0291179990476D1CBAF10001AAF196
:101C0000010AF1DC65E100000928010030313233BE
:101C10003435363738396162636465660000000028
:101C20003031323334353637383941424344454612
:101C30000000000000F058F90544761C30780028B8
:101C40007FF4ECAD19B02846BDE8F08F620700D4F0
:101C5000062709F1070222F0070CFCE80223E146FF
:101C600003F000485FEA080C02D00FF2702C0DE080
:101C70005FEA045C02D50FF2682C07E05FEAC47CDF
:101C800002D00FF2602C01E0AFF2700C4FF0FF3881
:101C900023F00043CDF850C065280CD006DC452861
:101CA00009D046281DD047283DD13DE0662818D0F0
:101CB00067287ED138E00021112F01DB112000E0E0
:101CC000781CCDE9000106A90EA8FFF7DDFCDDE9CF
:101CD0000F010E9A03910021009207F1010A04916D
:101CE0004DE04FF000400097CDE9011006A90EA885
:101CF000FFF7CAFCDDE90F0203920E9B1199002247
:101D0000DDF80CA00093049211B9791C00EB010AD4
:101D1000B7EB0A0004D4C0F1FF3007F1010A0490C8
:101D2000AAEB0700019044E0012F00DA012700210F
:101D3000112F01DD112000E03846CDE9000106A990
:101D40000EA8FFF7A1FCDDE90F010E9A0391002117
:101D500004910092BA4621070CD40399514500DA48
:101D60008A46BAF1010F05DD009AAAF10101515C22
:101D7000302908D0B84202DA10F1040F06DA012146
:101D8000CDE9011015E0AAF10101E9E7002805DC21
:101D9000049901440491AAEB000102E0411C514561
:101DA00000DD8A460499401A401C01904FF0004023
:101DB0000290200704D40198504501DBCDF804803F
:101DC00000208DF84F0002980DF14F07B0F1004F41
:101DD00025D02B200E9002984FF0020800280CDA34
:101DE000404202902D200E9007E00A210298FEF753
:101DF000E9F93031029007F8011DB8F10001A8F1AE
:101E00000108F2DC02980028EFD1791E0E980870C4
:101E1000307800F0200040F0450007F8020D12A8CD
:101E2000C01B00F107081498007800B1012000EBF6
:101E30000A01019801EBE07105984144401A401EE7
:101E40000590E00306D45B462146179A059800F0FA
:101E50005DF805441498007818B15A4617999047D0
:101E60006D1CE00324D55B462146179A059800F0C7
:101E70004DF805441CE00498002807DBDDE9030168
:101E8000884203DD0098405C179901E017993020E3
:101E90005A469047049805F10105401C04900198AA
:101EA000401E019004D12E205A46179990476D1C70
:101EB000BAF10001AAF1010ADDDC05E017F8010B17
:101EC0005A46179990476D1CB8F10001A8F1010816
:101ED000F4DC5B462146179A0598ABE62D0000001E
:101EE0002B000000200000002DE9F04104460025F1
:101EF0001E461746880404D405E039462020B04722
:101F00006D1C641EF9D52846BDE8F0812DE9F0412D
:101F1000044600251E469046C80301D5302700E040
:101F20002027880404D505E041463846B0476D1C9B
:101F3000641EF9D52846BDE8F0810A68531C0B6081
:101F4000107070470A200A200000496C20736567F2
:101F50006E616C652073656C657A696F6E61746F14
:101F6000206E6F6E20E82061747475616C6D656E13
:101F700074652061747469766F2E0A0A002D2044FE
:101F8000696769746172652035207065723A204214
:101F900052203D2031393230300A0A003120536559
:101FA000676E616C652050574D2041747469766F7F
:101FB0002C207072656C65766162696C6520737542
:101FC000205041300A0A0032205365676E616C6907
:101FD0002050574D204174746976692C20707265C9
:101FE0006C65766162696C692073752050413020A0
:101FF00065205041310A0A0033205365676E616CD9
:10200000692050574D204174746976692C20707294
:10201000656C65766162696C69207375205041302A
:102020002C205041312065205041340A0A003420D0
:102030005365676E616C692050574D204174746917
:1020400076692C207072656C65766162696C6920B6
:102050007375205041302C205041312C2050413498
:102060002065205041350A0A0053656C657A696F16
:102070006E617265206C276F707A696F6E6520647F
:102080006573696465726174613A0A2D20446967F9
:102090006974617265203120706572203A20646530
:1020A00066696E69726520696C206E756D65726F08
:1020B000206469207365676E616C692050574D20FC
:1020C00061747469766920283020646920646566CB
:1020D00061756C74290A2D204469676974617265A1
:1020E000203220706572203A206D6F6469666963E2
:1020F000617265206920706172616D65747269201A
:10210000646920756E207365676E616C6520505739
:102110004D2061747469766F0A2D20446967697473
:10212000617265203320706572203A2064656669AB
:102130006E69726520696C206261756420726174D9
:10214000652064656C6C6120636F6D756E69636199
:102150007A696F6E652073657269616C65202839D4
:102160003630302064692064656661756C74290AB4
:102170002D2044696769746172652034207065722E
:10218000203A206C656767657265206C274944209A
:1021900064656C206D6963726F636F6E74726F6CCF
:1021A0006C6F72650A0A0030205365676E616C6956
:1021B0002050574D204174746976690A0A004572AF
:1021C000726F72653A20436F6D616E646F204E6F5F
:1021D0006E2056616C69646F0A0A0053656C657AFB
:1021E000696F6E61726520696C206E756F766F2005
:1021F00076616C6F726520646120696D706F7374B5
:102200006172652070657220696C2042617564207E
:102210005261746520284252293A200A0053656CA5
:10222000657A696F6E61726520696C206E756F7674
:102230006F2076616C6F72652064656C20447574E4
:1022400079204379636C653A0A2D20446967697483
:102250006172652031207065723A203130250A2D77
:102260002044696769746172652032207065723A32
:10227000203330250A2D2044696769746172652016
:1022800033207065723A203530250A2D2044696765
:1022900069746172652034207065723A2037302588
:1022A0000A2D204469676974617265203520706564
:1022B000723A203930250A002D204469676974611B
:1022C00072652031207065723A204252203D2032E2
:1022D0003430300A002D20446967697461726520CA
:1022E00034207065723A204252203D20313434301F
:1022F000300A002D204469676974617265203320BB
:102300007065723A204252203D20393630300A0042
:102310002D2044696769746172652032207065728E
:102320003A204252203D20343830300A0053656C48
:10233000657A696F6E61726520696C207365676E7E
:10234000616C6520646920637569206D6F646966DE
:102350006963617265206920706172616D65747274
:10236000693A0A2D204469676974617265203120D9
:102370007065723A207365676E616C6520310A2D55
:102380002044696769746172652032207065723A11
:10239000207365676E616C6520320A2D2044696781
:1023A00069746172652033207065723A20736567C5
:1023B0006E616C6520330A2D20446967697461720F
:1023C000652034207065723A207365676E616C65B4
:1023D00020340A004C2749442064656C206D6963F1
:1023E000726F636F6E74726F6C6C6F726520E82031
:1023F0003A0A0042656E76656E75746F206E656C84
:102400002070726F6772616D6D6120706572206CF3
:10241000612067656E6572617A696F6E65206469B7
:10242000207365676E616C692050574D207472612E
:102430006D697465206C6120736368656461205305
:10244000544D33324634303152450A00416C6C27CA
:102450006174746976617A696F6E652C20696C208D
:102460006E756F766F207365676E616C652050576F
:102470004D206861206672657175656E7A612064B1
:10248000692064656661756C742070617269206191
:1024900020353020487A20652044757479204379AE
:1024A000636C6520706172692061203530250A53A4
:1024B000656C657A696F6E61726520696C206E75F6
:1024C0006D65726F206469207365676E616C692049
:1024D00050574D2064612074656E6572652061748B
:1024E000746976693A0A2D20446967697461726576
:1024F0002030207065723A2030207365676E616C01
:10250000692050574D206174746976690A2D204402
:10251000696769746172652031207065723A203193
:10252000207365676E616C652050574D206174742F
:1025300069766F0A2D20446967697461726520327B
:10254000207065723A2032207365676E616C692075
:1025500050574D206174746976690A2D204469676B
:1025600069746172652033207065723A203320737C
:1025700065676E616C692050574D2061747469768F
:10258000690A2D204469676974617265203420707E
:1025900065723A2034207365676E616C692050570C
:1025A0004D206174746976690A00536365676C69CC
:1025B00065726520696C20706172616D6574726FFF
:1025C000206461206D6F64696669636172653A0AAF
:1025D0002D204469676974617265203120706572CD
:1025E000206D6F646966696361726520696C20445F
:1025F000757479204379636C652064656C2073651C
:10260000676E616C652073656C657A696F6E617465
:102610006F0A2D20446967697461726520322070E9
:102620006572206D6F6469666963617265206C61B3
:10263000204672657175656E7A61202064656C2034
:102640007365676E616C652073656C657A696F6E22
:1026500061746F0A0053656C657A696F6E617265AB
:1026600020696C206E756F766F2076616C6F726575
:102670002064656C6C61206672657175656E7A6147
:102680003A0A2D20446967697461726520312070AF
:1026900065723A203120487A0A2D204469676974AE
:1026A0006172652032207065723A20313020487A9C
:1026B0000A2D204469676974617265203320706552
:1026C000723A20323020487A0A2D204469676974B2
:1026D0006172652034207065723A203130302048B4
:1026E0007A0A2D204469676974617265203520700B
:1026F00065723A2031206B487A0A2D204469676957
:10270000746172652036207065723A203130206B1A
:10271000487A0A0020003000310000003C27000801
:102720000000002020000000681600085C27000858
:102730002000002010040000781600088813000014
:10274000881300008813000088130000881300001D
:0C275000881300008813000088130000AC
:04000005080001A945
:00000001FF
